{
  "contractName": "StacktrekCV",
  "abi": [
    {
      "constant": true,
      "inputs": [],
      "name": "owner",
      "outputs": [
        {
          "name": "",
          "type": "address"
        }
      ],
      "payable": false,
      "stateMutability": "view",
      "type": "function"
    },
    {
      "constant": false,
      "inputs": [
        {
          "name": "newOwner",
          "type": "address"
        }
      ],
      "name": "transferOwnership",
      "outputs": [],
      "payable": false,
      "stateMutability": "nonpayable",
      "type": "function"
    },
    {
      "anonymous": false,
      "inputs": [
        {
          "indexed": false,
          "name": "_from",
          "type": "address"
        },
        {
          "indexed": false,
          "name": "_fname",
          "type": "bytes32"
        },
        {
          "indexed": false,
          "name": "_lname",
          "type": "bytes32"
        }
      ],
      "name": "OnInsertUser",
      "type": "event"
    },
    {
      "anonymous": false,
      "inputs": [
        {
          "indexed": false,
          "name": "_from",
          "type": "address"
        },
        {
          "indexed": false,
          "name": "_to",
          "type": "address"
        },
        {
          "indexed": false,
          "name": "_name",
          "type": "bytes32"
        },
        {
          "indexed": false,
          "name": "endorsements",
          "type": "uint256"
        }
      ],
      "name": "OnInsertUserSkill",
      "type": "event"
    },
    {
      "anonymous": false,
      "inputs": [
        {
          "indexed": false,
          "name": "_from",
          "type": "address"
        },
        {
          "indexed": false,
          "name": "_to",
          "type": "address"
        },
        {
          "indexed": false,
          "name": "_title",
          "type": "bytes32"
        },
        {
          "indexed": false,
          "name": "_company",
          "type": "bytes32"
        },
        {
          "indexed": false,
          "name": "_dateFrom",
          "type": "uint256"
        },
        {
          "indexed": false,
          "name": "_dateTo",
          "type": "uint256"
        }
      ],
      "name": "OnInsertUserExperience",
      "type": "event"
    },
    {
      "anonymous": false,
      "inputs": [
        {
          "indexed": false,
          "name": "_name",
          "type": "bytes32"
        },
        {
          "indexed": false,
          "name": "_examProvider",
          "type": "bytes32"
        }
      ],
      "name": "OnAddLeague",
      "type": "event"
    },
    {
      "anonymous": false,
      "inputs": [
        {
          "indexed": false,
          "name": "eventIndex",
          "type": "uint256"
        },
        {
          "indexed": false,
          "name": "_adrs",
          "type": "address"
        }
      ],
      "name": "OnAllowUserToInsertResult",
      "type": "event"
    },
    {
      "anonymous": false,
      "inputs": [
        {
          "indexed": false,
          "name": "_eventIndex",
          "type": "uint256"
        },
        {
          "indexed": false,
          "name": "_result",
          "type": "bytes32"
        },
        {
          "indexed": false,
          "name": "_certificateHash",
          "type": "bytes"
        }
      ],
      "name": "OnInsertUserLeagueResult",
      "type": "event"
    },
    {
      "anonymous": false,
      "inputs": [
        {
          "indexed": true,
          "name": "previousOwner",
          "type": "address"
        },
        {
          "indexed": true,
          "name": "newOwner",
          "type": "address"
        }
      ],
      "name": "OwnershipTransferred",
      "type": "event"
    },
    {
      "constant": false,
      "inputs": [
        {
          "name": "_fname",
          "type": "bytes32"
        },
        {
          "name": "_lname",
          "type": "bytes32"
        }
      ],
      "name": "insertUser",
      "outputs": [],
      "payable": false,
      "stateMutability": "nonpayable",
      "type": "function"
    },
    {
      "constant": true,
      "inputs": [
        {
          "name": "_adrs",
          "type": "address"
        }
      ],
      "name": "getUserInfo",
      "outputs": [
        {
          "name": "",
          "type": "bytes32"
        },
        {
          "name": "",
          "type": "bytes32"
        }
      ],
      "payable": false,
      "stateMutability": "view",
      "type": "function"
    },
    {
      "constant": false,
      "inputs": [
        {
          "name": "_to",
          "type": "address"
        },
        {
          "name": "_name",
          "type": "bytes32"
        }
      ],
      "name": "insertUserSkill",
      "outputs": [],
      "payable": false,
      "stateMutability": "nonpayable",
      "type": "function"
    },
    {
      "constant": true,
      "inputs": [
        {
          "name": "_adrs",
          "type": "address"
        },
        {
          "name": "_i",
          "type": "uint256"
        }
      ],
      "name": "getUserSkillByIndex",
      "outputs": [
        {
          "name": "",
          "type": "bytes32"
        },
        {
          "name": "",
          "type": "uint256"
        },
        {
          "name": "",
          "type": "address[]"
        }
      ],
      "payable": false,
      "stateMutability": "view",
      "type": "function"
    },
    {
      "constant": true,
      "inputs": [
        {
          "name": "_adrs",
          "type": "address"
        },
        {
          "name": "_name",
          "type": "bytes32"
        }
      ],
      "name": "getUserSkillByName",
      "outputs": [
        {
          "name": "",
          "type": "bytes32"
        },
        {
          "name": "",
          "type": "uint256"
        },
        {
          "name": "",
          "type": "address[]"
        }
      ],
      "payable": false,
      "stateMutability": "view",
      "type": "function"
    },
    {
      "constant": true,
      "inputs": [
        {
          "name": "_adrs",
          "type": "address"
        },
        {
          "name": "_name",
          "type": "bytes32"
        },
        {
          "name": "_i",
          "type": "uint256"
        }
      ],
      "name": "getUserSkillEndorsers",
      "outputs": [
        {
          "name": "",
          "type": "address"
        }
      ],
      "payable": false,
      "stateMutability": "view",
      "type": "function"
    },
    {
      "constant": true,
      "inputs": [
        {
          "name": "_adrs",
          "type": "address"
        }
      ],
      "name": "getUserSkillLength",
      "outputs": [
        {
          "name": "",
          "type": "uint256"
        }
      ],
      "payable": false,
      "stateMutability": "view",
      "type": "function"
    },
    {
      "constant": false,
      "inputs": [
        {
          "name": "_to",
          "type": "address"
        },
        {
          "name": "_title",
          "type": "bytes32"
        },
        {
          "name": "_company",
          "type": "bytes32"
        },
        {
          "name": "_dateFrom",
          "type": "uint256"
        },
        {
          "name": "_dateTo",
          "type": "uint256"
        }
      ],
      "name": "insertUserExperience",
      "outputs": [],
      "payable": false,
      "stateMutability": "nonpayable",
      "type": "function"
    },
    {
      "constant": true,
      "inputs": [
        {
          "name": "_adrs",
          "type": "address"
        },
        {
          "name": "_i",
          "type": "uint256"
        }
      ],
      "name": "getUserExperience",
      "outputs": [
        {
          "name": "",
          "type": "bytes32"
        },
        {
          "name": "",
          "type": "bytes32"
        },
        {
          "name": "",
          "type": "uint256"
        },
        {
          "name": "",
          "type": "uint256"
        },
        {
          "name": "",
          "type": "address[]"
        }
      ],
      "payable": false,
      "stateMutability": "view",
      "type": "function"
    },
    {
      "constant": true,
      "inputs": [
        {
          "name": "_adrs",
          "type": "address"
        }
      ],
      "name": "getUserExperienceLength",
      "outputs": [
        {
          "name": "",
          "type": "uint256"
        }
      ],
      "payable": false,
      "stateMutability": "view",
      "type": "function"
    },
    {
      "constant": false,
      "inputs": [
        {
          "name": "_name",
          "type": "bytes32"
        },
        {
          "name": "_examProvider",
          "type": "bytes32"
        }
      ],
      "name": "addLeague",
      "outputs": [],
      "payable": false,
      "stateMutability": "nonpayable",
      "type": "function"
    },
    {
      "constant": true,
      "inputs": [
        {
          "name": "i",
          "type": "uint256"
        }
      ],
      "name": "getLeague",
      "outputs": [
        {
          "name": "",
          "type": "bytes32"
        },
        {
          "name": "",
          "type": "bytes32"
        }
      ],
      "payable": false,
      "stateMutability": "view",
      "type": "function"
    },
    {
      "constant": true,
      "inputs": [],
      "name": "getLeagueLength",
      "outputs": [
        {
          "name": "",
          "type": "uint256"
        }
      ],
      "payable": false,
      "stateMutability": "view",
      "type": "function"
    },
    {
      "constant": false,
      "inputs": [
        {
          "name": "_eventIndex",
          "type": "uint256"
        },
        {
          "name": "_adrs",
          "type": "address"
        }
      ],
      "name": "allowUserToInsertResult",
      "outputs": [],
      "payable": false,
      "stateMutability": "nonpayable",
      "type": "function"
    },
    {
      "constant": true,
      "inputs": [
        {
          "name": "_eventIndex",
          "type": "uint256"
        },
        {
          "name": "_adrs",
          "type": "address"
        }
      ],
      "name": "checkUserHasResult",
      "outputs": [
        {
          "name": "",
          "type": "bool"
        }
      ],
      "payable": false,
      "stateMutability": "view",
      "type": "function"
    },
    {
      "constant": false,
      "inputs": [
        {
          "name": "_eventIndex",
          "type": "uint256"
        },
        {
          "name": "_result",
          "type": "bytes32"
        },
        {
          "name": "_certificateHash",
          "type": "bytes"
        }
      ],
      "name": "insertUserLeagueResult",
      "outputs": [],
      "payable": false,
      "stateMutability": "nonpayable",
      "type": "function"
    },
    {
      "constant": true,
      "inputs": [
        {
          "name": "_eventIndex",
          "type": "uint256"
        },
        {
          "name": "_adrs",
          "type": "address"
        }
      ],
      "name": "getUserLeagueResults",
      "outputs": [
        {
          "name": "",
          "type": "bytes32"
        },
        {
          "name": "",
          "type": "bytes32"
        },
        {
          "name": "",
          "type": "bytes32"
        },
        {
          "name": "",
          "type": "bytes"
        }
      ],
      "payable": false,
      "stateMutability": "view",
      "type": "function"
    },
    {
      "constant": false,
      "inputs": [],
      "name": "kill",
      "outputs": [],
      "payable": false,
      "stateMutability": "nonpayable",
      "type": "function"
    }
  ],
  "bytecode": "0x6080604052336000806101000a81548173ffffffffffffffffffffffffffffffffffffffff021916908373ffffffffffffffffffffffffffffffffffffffff160217905550612f2e806100536000396000f300608060405260043610610112576000357c0100000000000000000000000000000000000000000000000000000000900463ffffffff16806304396ad6146101175780631980a7f1146101d35780632317ca981461022a578063308cfc60146102695780633f7569fb146102b657806341c0e1b5146102e157806345516aaa146102f85780634ca9535e146103505780635d8a259e146103a75780636386c1c71461040c5780638c31759e1461047a5780638da5cb5b146105155780639c17c4701461056c578063d8593bb914610624578063dba0d57614610717578063dd8e3cb5146107e5578063eabff7d514610836578063f2fde38b146108b7578063fad02404146108fa578063ffd91a9e1461096d575b600080fd5b34801561012357600080fd5b50610166600480360381019080803573ffffffffffffffffffffffffffffffffffffffff16906020019092919080356000191690602001909291905050506109ac565b60405180846000191660001916815260200183815260200180602001828103825283818151815260200191508051906020019060200280838360005b838110156101bd5780820151818401526020810190506101a2565b5050505090500194505050505060405180910390f35b3480156101df57600080fd5b50610214600480360381019080803573ffffffffffffffffffffffffffffffffffffffff169060200190929190505050610b65565b6040518082815260200191505060405180910390f35b34801561023657600080fd5b5061026760048036038101908080356000191690602001909291908035600019169060200190929190505050610bb4565b005b34801561027557600080fd5b506102b460048036038101908080359060200190929190803573ffffffffffffffffffffffffffffffffffffffff169060200190929190505050610d28565b005b3480156102c257600080fd5b506102cb610ec2565b6040518082815260200191505060405180910390f35b3480156102ed57600080fd5b506102f6610ecf565b005b34801561030457600080fd5b5061032360048036038101908080359060200190929190505050610f64565b60405180836000191660001916815260200182600019166000191681526020019250505060405180910390f35b34801561035c57600080fd5b50610391600480360381019080803573ffffffffffffffffffffffffffffffffffffffff169060200190929190505050610fb2565b6040518082815260200191505060405180910390f35b3480156103b357600080fd5b506103f260048036038101908080359060200190929190803573ffffffffffffffffffffffffffffffffffffffff169060200190929190505050611006565b604051808215151515815260200191505060405180910390f35b34801561041857600080fd5b5061044d600480360381019080803573ffffffffffffffffffffffffffffffffffffffff16906020019092919050505061107b565b60405180836000191660001916815260200182600019166000191681526020019250505060405180910390f35b34801561048657600080fd5b506104d3600480360381019080803573ffffffffffffffffffffffffffffffffffffffff16906020019092919080356000191690602001909291908035906020019092919050505061110d565b604051808273ffffffffffffffffffffffffffffffffffffffff1673ffffffffffffffffffffffffffffffffffffffff16815260200191505060405180910390f35b34801561052157600080fd5b5061052a6111ae565b604051808273ffffffffffffffffffffffffffffffffffffffff1673ffffffffffffffffffffffffffffffffffffffff16815260200191505060405180910390f35b34801561057857600080fd5b506105b7600480360381019080803573ffffffffffffffffffffffffffffffffffffffff169060200190929190803590602001909291905050506111d3565b60405180846000191660001916815260200183815260200180602001828103825283818151815260200191508051906020019060200280838360005b8381101561060e5780820151818401526020810190506105f3565b5050505090500194505050505060405180910390f35b34801561063057600080fd5b5061066f60048036038101908080359060200190929190803573ffffffffffffffffffffffffffffffffffffffff16906020019092919050505061138d565b6040518085600019166000191681526020018460001916600019168152602001836000191660001916815260200180602001828103825283818151815260200191508051906020019080838360005b838110156106d95780820151818401526020810190506106be565b50505050905090810190601f1680156107065780820380516001836020036101000a031916815260200191505b509550505050505060405180910390f35b34801561072357600080fd5b50610762600480360381019080803573ffffffffffffffffffffffffffffffffffffffff1690602001909291908035906020019092919050505061159c565b604051808660001916600019168152602001856000191660001916815260200184815260200183815260200180602001828103825283818151815260200191508051906020019060200280838360005b838110156107cd5780820151818401526020810190506107b2565b50505050905001965050505050505060405180910390f35b3480156107f157600080fd5b50610834600480360381019080803573ffffffffffffffffffffffffffffffffffffffff1690602001909291908035600019169060200190929190505050611954565b005b34801561084257600080fd5b506108b5600480360381019080803590602001909291908035600019169060200190929190803590602001908201803590602001908080601f016020809104026020016040519081016040528093929190818152602001838380828437820191505050505050919291929050505061200c565b005b3480156108c357600080fd5b506108f8600480360381019080803573ffffffffffffffffffffffffffffffffffffffff1690602001909291905050506122bf565b005b34801561090657600080fd5b5061096b600480360381019080803573ffffffffffffffffffffffffffffffffffffffff169060200190929190803560001916906020019092919080356000191690602001909291908035906020019092919080359060200190929190505050612414565b005b34801561097957600080fd5b506109aa60048036038101908080356000191690602001909291908035600019169060200190929190505050612bc4565b005b6000806060600260008673ffffffffffffffffffffffffffffffffffffffff1673ffffffffffffffffffffffffffffffffffffffff1681526020019081526020016000206003016000856000191660001916815260200190815260200160002060000154600260008773ffffffffffffffffffffffffffffffffffffffff1673ffffffffffffffffffffffffffffffffffffffff1681526020019081526020016000206003016000866000191660001916815260200190815260200160002060020180549050600260008873ffffffffffffffffffffffffffffffffffffffff1673ffffffffffffffffffffffffffffffffffffffff1681526020019081526020016000206003016000876000191660001916815260200190815260200160002060020180805480602002602001604051908101604052809291908181526020018280548015610b5157602002820191906000526020600020905b8160009054906101000a900473ffffffffffffffffffffffffffffffffffffffff1673ffffffffffffffffffffffffffffffffffffffff1681526020019060010190808311610b07575b505050505090509250925092509250925092565b6000600260008373ffffffffffffffffffffffffffffffffffffffff1673ffffffffffffffffffffffffffffffffffffffff168152602001908152602001600020600201805490509050919050565b81600260003373ffffffffffffffffffffffffffffffffffffffff1673ffffffffffffffffffffffffffffffffffffffff168152602001908152602001600020600001816000191690555080600260003373ffffffffffffffffffffffffffffffffffffffff1673ffffffffffffffffffffffffffffffffffffffff168152602001908152602001600020600101816000191690555060018060003373ffffffffffffffffffffffffffffffffffffffff1673ffffffffffffffffffffffffffffffffffffffff16815260200190815260200160002060006101000a81548160ff0219169083151502179055507f2e7315ba010eb2d6c9c211af2bdf5b246090b4ff599141faee1e96f2bb5aaac3338383604051808473ffffffffffffffffffffffffffffffffffffffff1673ffffffffffffffffffffffffffffffffffffffff16815260200183600019166000191681526020018260001916600019168152602001935050505060405180910390a15050565b6000809054906101000a900473ffffffffffffffffffffffffffffffffffffffff1673ffffffffffffffffffffffffffffffffffffffff163373ffffffffffffffffffffffffffffffffffffffff16141515610d8357600080fd5b80600160008273ffffffffffffffffffffffffffffffffffffffff1673ffffffffffffffffffffffffffffffffffffffff16815260200190815260200160002060009054906101000a900460ff161515610ddc57600080fd5b6001600384815481101515610ded57fe5b906000526020600020906003020160020160008473ffffffffffffffffffffffffffffffffffffffff1673ffffffffffffffffffffffffffffffffffffffff16815260200190815260200160002060006101000a81548160ff0219169083151502179055507f30e241eb0858806387745404c7ca23976e753c8f7109c1ebf1bad3c2c4668a5c8383604051808381526020018273ffffffffffffffffffffffffffffffffffffffff1673ffffffffffffffffffffffffffffffffffffffff1681526020019250505060405180910390a1505050565b6000600380549050905090565b6000809054906101000a900473ffffffffffffffffffffffffffffffffffffffff1673ffffffffffffffffffffffffffffffffffffffff163373ffffffffffffffffffffffffffffffffffffffff16141515610f2a57600080fd5b6000809054906101000a900473ffffffffffffffffffffffffffffffffffffffff1673ffffffffffffffffffffffffffffffffffffffff16ff5b600080600383815481101515610f7657fe5b906000526020600020906003020160000154600384815481101515610f9757fe5b90600052602060002090600302016001015491509150915091565b600080600260008473ffffffffffffffffffffffffffffffffffffffff1673ffffffffffffffffffffffffffffffffffffffff16815260200190815260200160002060050180549050905080915050919050565b600060038381548110151561101757fe5b906000526020600020906003020160020160008373ffffffffffffffffffffffffffffffffffffffff1673ffffffffffffffffffffffffffffffffffffffff16815260200190815260200160002060009054906101000a900460ff16905092915050565b600080600260008473ffffffffffffffffffffffffffffffffffffffff1673ffffffffffffffffffffffffffffffffffffffff16815260200190815260200160002060000154600260008573ffffffffffffffffffffffffffffffffffffffff1673ffffffffffffffffffffffffffffffffffffffff1681526020019081526020016000206001015491509150915091565b6000600260008573ffffffffffffffffffffffffffffffffffffffff1673ffffffffffffffffffffffffffffffffffffffff168152602001908152602001600020600301600084600019166000191681526020019081526020016000206002018281548110151561117a57fe5b9060005260206000200160009054906101000a900473ffffffffffffffffffffffffffffffffffffffff1690509392505050565b6000809054906101000a900473ffffffffffffffffffffffffffffffffffffffff1681565b60008060606000600260008773ffffffffffffffffffffffffffffffffffffffff1673ffffffffffffffffffffffffffffffffffffffff1681526020019081526020016000206002018581548110151561122957fe5b9060005260206000200154905080600260008873ffffffffffffffffffffffffffffffffffffffff1673ffffffffffffffffffffffffffffffffffffffff1681526020019081526020016000206003016000836000191660001916815260200190815260200160002060020180549050600260008973ffffffffffffffffffffffffffffffffffffffff1673ffffffffffffffffffffffffffffffffffffffff168152602001908152602001600020600301600084600019166000191681526020019081526020016000206002018080548060200260200160405190810160405280929190818152602001828054801561137857602002820191906000526020600020905b8160009054906101000a900473ffffffffffffffffffffffffffffffffffffffff1673ffffffffffffffffffffffffffffffffffffffff168152602001906001019080831161132e575b50505050509050935093509350509250925092565b60008060006060600260008673ffffffffffffffffffffffffffffffffffffffff1673ffffffffffffffffffffffffffffffffffffffff168152602001908152602001600020600801600087815260200190815260200160002060000154600260008773ffffffffffffffffffffffffffffffffffffffff1673ffffffffffffffffffffffffffffffffffffffff168152602001908152602001600020600801600088815260200190815260200160002060010154600260008873ffffffffffffffffffffffffffffffffffffffff1673ffffffffffffffffffffffffffffffffffffffff168152602001908152602001600020600801600089815260200190815260200160002060020154600260008973ffffffffffffffffffffffffffffffffffffffff1673ffffffffffffffffffffffffffffffffffffffff16815260200190815260200160002060080160008a8152602001908152602001600020600301808054600181600116156101000203166002900480601f0160208091040260200160405190810160405280929190818152602001828054600181600116156101000203166002900480156115845780601f1061155957610100808354040283529160200191611584565b820191906000526020600020905b81548152906001019060200180831161156757829003601f168201915b50505050509050935093509350935092959194509250565b6000806000806060600080600260008a73ffffffffffffffffffffffffffffffffffffffff1673ffffffffffffffffffffffffffffffffffffffff168152602001908152602001600020600501888154811015156115f657fe5b90600052602060002001549150600260008a73ffffffffffffffffffffffffffffffffffffffff1673ffffffffffffffffffffffffffffffffffffffff1681526020019081526020016000206004018881548110151561165257fe5b90600052602060002001549050600260008a73ffffffffffffffffffffffffffffffffffffffff1673ffffffffffffffffffffffffffffffffffffffff168152602001908152602001600020600601600082600019166000191681526020019081526020016000206000836000191660001916815260200190815260200160002060000154600260008b73ffffffffffffffffffffffffffffffffffffffff1673ffffffffffffffffffffffffffffffffffffffff168152602001908152602001600020600601600083600019166000191681526020019081526020016000206000846000191660001916815260200190815260200160002060010154600260008c73ffffffffffffffffffffffffffffffffffffffff1673ffffffffffffffffffffffffffffffffffffffff168152602001908152602001600020600601600084600019166000191681526020019081526020016000206000856000191660001916815260200190815260200160002060020154600260008d73ffffffffffffffffffffffffffffffffffffffff1673ffffffffffffffffffffffffffffffffffffffff168152602001908152602001600020600601600085600019166000191681526020019081526020016000206000866000191660001916815260200190815260200160002060030154600260008e73ffffffffffffffffffffffffffffffffffffffff1673ffffffffffffffffffffffffffffffffffffffff16815260200190815260200160002060060160008660001916600019168152602001908152602001600020600087600019166000191681526020019081526020016000206005018080548060200260200160405190810160405280929190818152602001828054801561193757602002820191906000526020600020905b8160009054906101000a900473ffffffffffffffffffffffffffffffffffffffff1673ffffffffffffffffffffffffffffffffffffffff16815260200190600101908083116118ed575b505050505090509650965096509650965050509295509295909350565b6000806000611961612ceb565b6000803388600160008373ffffffffffffffffffffffffffffffffffffffff1673ffffffffffffffffffffffffffffffffffffffff16815260200190815260200160002060009054906101000a900460ff1615156119be57600080fd5b600160008273ffffffffffffffffffffffffffffffffffffffff1673ffffffffffffffffffffffffffffffffffffffff16815260200190815260200160002060009054906101000a900460ff161515611a1657600080fd5b8073ffffffffffffffffffffffffffffffffffffffff168273ffffffffffffffffffffffffffffffffffffffff1614151515611a5157600080fd5b3397506000600102600260008c73ffffffffffffffffffffffffffffffffffffffff1673ffffffffffffffffffffffffffffffffffffffff16815260200190815260200160002060030160008b6000191660001916815260200190815260200160002060000154600019161496508615611b3857600260008b73ffffffffffffffffffffffffffffffffffffffff1673ffffffffffffffffffffffffffffffffffffffff1681526020019081526020016000206002018990806001815401808255809150509060018203906000526020600020016000909192909190915090600019169055505b600260008b73ffffffffffffffffffffffffffffffffffffffff1673ffffffffffffffffffffffffffffffffffffffff16815260200190815260200160002060030160008a60001916600019168152602001908152602001600020600201955060408051908101604052808a60001916815260200187805480602002602001604051908101604052809291908181526020018280548015611c2e57602002820191906000526020600020905b8160009054906101000a900473ffffffffffffffffffffffffffffffffffffffff1673ffffffffffffffffffffffffffffffffffffffff1681526020019060010190808311611be4575b5050505050815250945084600260008c73ffffffffffffffffffffffffffffffffffffffff1673ffffffffffffffffffffffffffffffffffffffff16815260200190815260200160002060030160008b60001916600019168152602001908152602001600020600082015181600001906000191690556020820151816002019080519060200190611cc0929190612d08565b50905050600260008b73ffffffffffffffffffffffffffffffffffffffff1673ffffffffffffffffffffffffffffffffffffffff16815260200190815260200160002060030160008a6000191660001916815260200190815260200160002060010160008973ffffffffffffffffffffffffffffffffffffffff1673ffffffffffffffffffffffffffffffffffffffff16815260200190815260200160002060009054906101000a900460ff161593508315611eed57600260008b73ffffffffffffffffffffffffffffffffffffffff1673ffffffffffffffffffffffffffffffffffffffff16815260200190815260200160002060030160008a600019166000191681526020019081526020016000206002018890806001815401808255809150509060018203906000526020600020016000909192909190916101000a81548173ffffffffffffffffffffffffffffffffffffffff021916908373ffffffffffffffffffffffffffffffffffffffff160217905550506001600260008c73ffffffffffffffffffffffffffffffffffffffff1673ffffffffffffffffffffffffffffffffffffffff16815260200190815260200160002060030160008b6000191660001916815260200190815260200160002060010160008a73ffffffffffffffffffffffffffffffffffffffff1673ffffffffffffffffffffffffffffffffffffffff16815260200190815260200160002060006101000a81548160ff0219169083151502179055505b600260008b73ffffffffffffffffffffffffffffffffffffffff1673ffffffffffffffffffffffffffffffffffffffff16815260200190815260200160002060030160008a600019166000191681526020019081526020016000206002018054905092507fbdd78f00ebe1b637999c451bb036a98a3580b5308149f76178c9a2223c9d5af0888b8b86604051808573ffffffffffffffffffffffffffffffffffffffff1673ffffffffffffffffffffffffffffffffffffffff1681526020018473ffffffffffffffffffffffffffffffffffffffff1673ffffffffffffffffffffffffffffffffffffffff168152602001836000191660001916815260200182815260200194505050505060405180910390a150505050505050505050565b600080612017612d92565b33600160008273ffffffffffffffffffffffffffffffffffffffff1673ffffffffffffffffffffffffffffffffffffffff16815260200190815260200160002060009054906101000a900460ff16151561207057600080fd5b8660038181548110151561208057fe5b906000526020600020906003020160020160003373ffffffffffffffffffffffffffffffffffffffff1673ffffffffffffffffffffffffffffffffffffffff16815260200190815260200160002060009054906101000a900460ff1615156120e757600080fd5b6003888154811015156120f657fe5b906000526020600020906003020160000154945060038881548110151561211957fe5b906000526020600020906003020160010154935060806040519081016040528086600019168152602001856000191681526020018860001916815260200187815250925082600260003373ffffffffffffffffffffffffffffffffffffffff1673ffffffffffffffffffffffffffffffffffffffff16815260200190815260200160002060080160008a815260200190815260200160002060008201518160000190600019169055602082015181600101906000191690556040820151816002019060001916905560608201518160030190805190602001906121fd929190612dc4565b509050507f94c78b4987b1bea69f61b0f7bd620070d339b2d240f866a78970cd3d6fe1437988888860405180848152602001836000191660001916815260200180602001828103825283818151815260200191508051906020019080838360005b8381101561227957808201518184015260208101905061225e565b50505050905090810190601f1680156122a65780820380516001836020036101000a031916815260200191505b5094505050505060405180910390a15050505050505050565b6000809054906101000a900473ffffffffffffffffffffffffffffffffffffffff1673ffffffffffffffffffffffffffffffffffffffff163373ffffffffffffffffffffffffffffffffffffffff1614151561231a57600080fd5b600073ffffffffffffffffffffffffffffffffffffffff168173ffffffffffffffffffffffffffffffffffffffff161415151561235657600080fd5b8073ffffffffffffffffffffffffffffffffffffffff166000809054906101000a900473ffffffffffffffffffffffffffffffffffffffff1673ffffffffffffffffffffffffffffffffffffffff167f8be0079c531659141344cd1fd0a4f28419497f9722a3daafe3b4186f6b6457e060405160405180910390a3806000806101000a81548173ffffffffffffffffffffffffffffffffffffffff021916908373ffffffffffffffffffffffffffffffffffffffff16021790555050565b6000806060612421612e44565b6000338a600160008373ffffffffffffffffffffffffffffffffffffffff1673ffffffffffffffffffffffffffffffffffffffff16815260200190815260200160002060009054906101000a900460ff16151561247d57600080fd5b600160008273ffffffffffffffffffffffffffffffffffffffff1673ffffffffffffffffffffffffffffffffffffffff16815260200190815260200160002060009054906101000a900460ff1615156124d557600080fd5b8073ffffffffffffffffffffffffffffffffffffffff168273ffffffffffffffffffffffffffffffffffffffff161415151561251057600080fd5b3396506000600102600260008e73ffffffffffffffffffffffffffffffffffffffff1673ffffffffffffffffffffffffffffffffffffffff16815260200190815260200160002060060160008c6000191660001916815260200190815260200160002060008d600019166000191681526020019081526020016000206000015460001916149550851561268257600260008d73ffffffffffffffffffffffffffffffffffffffff1673ffffffffffffffffffffffffffffffffffffffff1681526020019081526020016000206005018b9080600181540180825580915050906001820390600052602060002001600090919290919091509060001916905550600260008d73ffffffffffffffffffffffffffffffffffffffff1673ffffffffffffffffffffffffffffffffffffffff1681526020019081526020016000206004018a90806001815401808255809150509060018203906000526020600020016000909192909190915090600019169055505b600260008d73ffffffffffffffffffffffffffffffffffffffff1673ffffffffffffffffffffffffffffffffffffffff16815260200190815260200160002060060160008b6000191660001916815260200190815260200160002060008c6000191660001916815260200190815260200160002060050180548060200260200160405190810160405280929190818152602001828054801561277957602002820191906000526020600020905b8160009054906101000a900473ffffffffffffffffffffffffffffffffffffffff1673ffffffffffffffffffffffffffffffffffffffff168152602001906001019080831161272f575b5050505050945060a0604051908101604052808c6000191681526020018b6000191681526020018a815260200189815260200186815250935083600260008e73ffffffffffffffffffffffffffffffffffffffff1673ffffffffffffffffffffffffffffffffffffffff16815260200190815260200160002060060160008c6000191660001916815260200190815260200160002060008d60001916600019168152602001908152602001600020600082015181600001906000191690556020820151816001019060001916905560408201518160020155606082015181600301556080820151816005019080519060200190612877929190612d08565b50905050600260008d73ffffffffffffffffffffffffffffffffffffffff1673ffffffffffffffffffffffffffffffffffffffff16815260200190815260200160002060060160008b6000191660001916815260200190815260200160002060008c6000191660001916815260200190815260200160002060040160008873ffffffffffffffffffffffffffffffffffffffff1673ffffffffffffffffffffffffffffffffffffffff16815260200190815260200160002060009054906101000a900460ff161592508215612aef57600260008d73ffffffffffffffffffffffffffffffffffffffff1673ffffffffffffffffffffffffffffffffffffffff16815260200190815260200160002060060160008b6000191660001916815260200190815260200160002060008c600019166000191681526020019081526020016000206005018790806001815401808255809150509060018203906000526020600020016000909192909190916101000a81548173ffffffffffffffffffffffffffffffffffffffff021916908373ffffffffffffffffffffffffffffffffffffffff160217905550506001600260008e73ffffffffffffffffffffffffffffffffffffffff1673ffffffffffffffffffffffffffffffffffffffff16815260200190815260200160002060060160008c6000191660001916815260200190815260200160002060008d6000191660001916815260200190815260200160002060040160008973ffffffffffffffffffffffffffffffffffffffff1673ffffffffffffffffffffffffffffffffffffffff16815260200190815260200160002060006101000a81548160ff0219169083151502179055505b7f4f84bafb27056c5247b90cf01583e7490d8b7d4a825496b528bdff6b78fd9c3c338d8d8d8d8d604051808773ffffffffffffffffffffffffffffffffffffffff1673ffffffffffffffffffffffffffffffffffffffff1681526020018673ffffffffffffffffffffffffffffffffffffffff1673ffffffffffffffffffffffffffffffffffffffff16815260200185600019166000191681526020018460001916600019168152602001838152602001828152602001965050505050505060405180910390a1505050505050505050505050565b612bcc612e7a565b6000809054906101000a900473ffffffffffffffffffffffffffffffffffffffff1673ffffffffffffffffffffffffffffffffffffffff163373ffffffffffffffffffffffffffffffffffffffff16141515612c2757600080fd5b604080519081016040528084600019168152602001836000191681525090506003819080600181540180825580915050906001820390600052602060002090600302016000909192909190915060008201518160000190600019169055602082015181600101906000191690555050507f65e760a2c85bc91caa54945dfa421517c4ca4a619b08844e5e8a7a5077c1d6b9838360405180836000191660001916815260200182600019166000191681526020019250505060405180910390a1505050565b604080519081016040528060008019168152602001606081525090565b828054828255906000526020600020908101928215612d81579160200282015b82811115612d805782518260006101000a81548173ffffffffffffffffffffffffffffffffffffffff021916908373ffffffffffffffffffffffffffffffffffffffff16021790555091602001919060010190612d28565b5b509050612d8e9190612e9a565b5090565b608060405190810160405280600080191681526020016000801916815260200160008019168152602001606081525090565b828054600181600116156101000203166002900490600052602060002090601f016020900481019282601f10612e0557805160ff1916838001178555612e33565b82800160010185558215612e33579182015b82811115612e32578251825591602001919060010190612e17565b5b509050612e409190612edd565b5090565b60a06040519081016040528060008019168152602001600080191681526020016000815260200160008152602001606081525090565b604080519081016040528060008019168152602001600080191681525090565b612eda91905b80821115612ed657600081816101000a81549073ffffffffffffffffffffffffffffffffffffffff021916905550600101612ea0565b5090565b90565b612eff91905b80821115612efb576000816000905550600101612ee3565b5090565b905600a165627a7a72305820d6c6d1f4297662d199b0e754f9697cfbb63b04bd6e7ca5ce79f6de7f7842aa590029",
  "source": "pragma solidity  ^0.4.24;\r\n\r\nimport 'openzeppelin-solidity/contracts/ownership/Ownable.sol';\r\n\r\ncontract StacktrekCV is Ownable {\r\n  \r\n  event OnInsertUser(address _from, bytes32 _fname, bytes32 _lname);\r\n  event OnInsertUserSkill(address _from, address _to, bytes32 _name, uint endorsements);\r\n  event OnInsertUserExperience(address _from, address _to, bytes32 _title, bytes32 _company, uint256 _dateFrom, uint256 _dateTo);\r\n  event OnAddLeague(bytes32 _name, bytes32 _examProvider);\r\n  event OnAllowUserToInsertResult(uint eventIndex, address _adrs);\r\n  event OnInsertUserLeagueResult(uint _eventIndex, bytes32 _result, bytes _certificateHash);\r\n  \r\n  struct User {\r\n    bytes32 fname;\r\n    bytes32 lname;\r\n    bytes32[] skillList;\r\n    mapping(bytes32 => Skills) skills;\r\n    bytes32[] companyList;\r\n    bytes32[] titleList;\r\n    mapping(bytes32 => mapping(bytes32 => Experience)) experience;\r\n    bytes32[] certList;\r\n    mapping(uint => LeagueResult) leagueResults;\r\n  }\r\n  \r\n  struct Skills{\r\n    bytes32 name;\r\n    mapping(address => bool) endorsers;\r\n    address[] endorserslist;\r\n  }\r\n  \r\n  struct Experience {\r\n    bytes32 title;\r\n    bytes32 company;\r\n    uint256 dateFrom;\r\n    uint256 dateTo;\r\n    mapping(address => bool) endorsers;\r\n    address[] endorserslist;\r\n  }\r\n  \r\n  struct LeagueResult {\r\n      bytes32 name;\r\n      bytes32 examProvider;\r\n      bytes32 result;\r\n      bytes certificateHash;\r\n  }\r\n  \r\n  struct League {\r\n      bytes32 name;\r\n      bytes32 examProvider;\r\n      mapping(address => bool) hasResult;\r\n  }\r\n  \r\n  mapping(address => bool) registered;\r\n  mapping(address => User) users;\r\n  League[] league;\r\n  \r\n  function insertUser(bytes32 _fname, bytes32 _lname) public {\r\n    users[msg.sender].fname = _fname;\r\n    users[msg.sender].lname = _lname;\r\n    \r\n    registered[msg.sender] = true;\r\n    \r\n    emit OnInsertUser(msg.sender, _fname, _lname);\r\n  }\r\n  \r\n  function getUserInfo(address _adrs) public view returns (bytes32, bytes32){\r\n    return (users[_adrs].fname, users[_adrs].lname);\r\n  }\r\n  \r\n  modifier registeredOnly(address _from, address _to) {\r\n    require(registered[_from]);\r\n        require(registered[_to]);\r\n            require(_from != _to);\r\n    _;\r\n  }\r\n  \r\n  function insertUserSkill(address _to, bytes32 _name) public registeredOnly(msg.sender, _to) {\r\n    address endorser = msg.sender;\r\n    bool skillDontExist = (users[_to].skills[_name].name == 0x0);\r\n    \r\n    if(skillDontExist){\r\n        users[_to].skillList.push(_name);\r\n    }\r\n    \r\n    address[] storage endorserslist = users[_to].skills[_name].endorserslist;\r\n    \r\n    Skills memory skills = Skills(_name, endorserslist);\r\n    users[_to].skills[_name] = (skills);\r\n    \r\n    bool endorserDontExist = (!users[_to].skills[_name].endorsers[endorser]);\r\n    \r\n    if(endorserDontExist) {\r\n        users[_to].skills[_name].endorserslist.push(endorser);\r\n        users[_to].skills[_name].endorsers[endorser] = true;\r\n    }\r\n    \r\n    uint endorsments = users[_to].skills[_name].endorserslist.length;\r\n        \r\n    emit OnInsertUserSkill(endorser, _to, _name, endorsments);\r\n    \r\n  }\r\n  \r\n  function getUserSkillByIndex(address _adrs, uint _i) public view returns (bytes32, uint, address[]) {\r\n    bytes32 skillName = users[_adrs].skillList[_i];\r\n    return (skillName, \r\n            users[_adrs].skills[skillName].endorserslist.length,\r\n            users[_adrs].skills[skillName].endorserslist);\r\n  }\r\n\r\n  function getUserSkillByName(address _adrs, bytes32 _name) public view returns (bytes32, uint, address[]) {\r\n    return (users[_adrs].skills[_name].name, \r\n            users[_adrs].skills[_name].endorserslist.length,\r\n            users[_adrs].skills[_name].endorserslist);\r\n  }\r\n  \r\n  function getUserSkillEndorsers(address _adrs, bytes32 _name, uint _i) public view  returns (address) {\r\n    return users[_adrs].skills[_name].endorserslist[_i];\r\n  }\r\n  \r\n  function getUserSkillLength(address _adrs) public view returns(uint) {\r\n    return users[_adrs].skillList.length;\r\n  }\r\n\r\n  function insertUserExperience(address _to, bytes32 _title, bytes32 _company, uint256 _dateFrom, uint256 _dateTo) public registeredOnly(msg.sender, _to) {\r\n    address endorser = msg.sender;\r\n    bool companyTitleDontExist = (users[_to].experience[_company][_title].title == 0x0);\r\n    \r\n    if(companyTitleDontExist) {\r\n        users[_to].titleList.push(_title);\r\n        users[_to].companyList.push(_company);\r\n    }\r\n    \r\n    address[] memory endorserslist = users[_to].experience[_company][_title].endorserslist;\r\n    \r\n    Experience memory experience = Experience(_title, _company, _dateFrom, _dateTo, endorserslist);\r\n    users[_to].experience[_company][_title] = experience;\r\n    \r\n    bool endorserDontExist = (!users[_to].experience[_company][_title].endorsers[endorser]);\r\n    \r\n    if(endorserDontExist) {\r\n        users[_to].experience[_company][_title].endorserslist.push(endorser);\r\n        users[_to].experience[_company][_title].endorsers[endorser] = true;\r\n    }\r\n    \r\n    emit OnInsertUserExperience(msg.sender, _to, _title, _company, _dateFrom, _dateTo);\r\n    \r\n  }\r\n  \r\n  function getUserExperience(address _adrs, uint _i) public view returns (bytes32, bytes32, uint256, uint256, address[]){\r\n    bytes32 tempTitle = users[_adrs].titleList[_i];\r\n    bytes32 tempCompany= users[_adrs].companyList[_i];\r\n    return(\r\n        users[_adrs].experience[tempCompany][tempTitle].title, \r\n        users[_adrs].experience[tempCompany][tempTitle].company, \r\n        users[_adrs].experience[tempCompany][tempTitle].dateFrom, \r\n        users[_adrs].experience[tempCompany][tempTitle].dateTo,\r\n        users[_adrs].experience[tempCompany][tempTitle].endorserslist\r\n    );\r\n  }\r\n  \r\n  function getUserExperienceLength(address _adrs) public view returns(uint) {\r\n    uint userExpLen = users[_adrs].titleList.length;\r\n    return userExpLen;\r\n  }\r\n  \r\n  function addLeague(bytes32 _name, bytes32 _examProvider) public onlyOwner {\r\n    League memory lg = League(_name, _examProvider);\r\n    league.push(lg);\r\n      \r\n    emit OnAddLeague(_name, _examProvider);\r\n  }\r\n  \r\n  function getLeague(uint i) public view returns (bytes32, bytes32) {\r\n      return (league[i].name, league[i].examProvider);\r\n  }\r\n  \r\n  function getLeagueLength() public view returns (uint) {\r\n      return league.length;\r\n  }\r\n  \r\n  modifier registeredOnlySolo (address _adrs) {\r\n    require(registered[_adrs]);\r\n    _;\r\n  }\r\n  \r\n  function allowUserToInsertResult(uint _eventIndex, address _adrs) public onlyOwner registeredOnlySolo(_adrs) {\r\n    league[_eventIndex].hasResult[_adrs] = true;\r\n    \r\n    emit OnAllowUserToInsertResult(_eventIndex, _adrs);\r\n  }\r\n  \r\n  function checkUserHasResult(uint _eventIndex, address _adrs) public view returns (bool) {\r\n    return (league[_eventIndex].hasResult[_adrs]);\r\n  }\r\n  \r\n  modifier hasResultOnly(uint _eventIndex) {\r\n    require(league[_eventIndex].hasResult[msg.sender]);\r\n    _;\r\n  }\r\n  \r\n  function insertUserLeagueResult(uint _eventIndex, bytes32 _result, bytes _certificateHash) public registeredOnlySolo(msg.sender) hasResultOnly(_eventIndex) {\r\n    bytes32 leagueName = league[_eventIndex].name;\r\n    bytes32 examProvider = league[_eventIndex].examProvider;\r\n    LeagueResult memory lr = LeagueResult(leagueName, examProvider, _result, _certificateHash);\r\n    users[msg.sender].leagueResults[_eventIndex] = lr;\r\n    \r\n    emit OnInsertUserLeagueResult(_eventIndex, _result, _certificateHash);\r\n  }\r\n  \r\n  function getUserLeagueResults(uint _eventIndex, address _adrs) public view returns (bytes32, bytes32, bytes32, bytes) {\r\n    return (users[_adrs].leagueResults[_eventIndex].name, \r\n            users[_adrs].leagueResults[_eventIndex].examProvider,\r\n            users[_adrs].leagueResults[_eventIndex].result,\r\n            users[_adrs].leagueResults[_eventIndex].certificateHash);\r\n  }\r\n  \r\n  function kill() public onlyOwner {\r\n    selfdestruct(owner);\r\n  }\r\n   \r\n}\r\n",
  "sourcePath": "C:\\Users\\Kim\\Desktop\\ST5\\stacktrek-web-v2\\contracts\\StacktrekCV.sol",
  "compiler": {
    "name": "solc",
    "version": "0.4.24+commit.e67f0147.Emscripten.clang"
  },
  "schemaVersion": "2.0.1",
  "updatedAt": "2018-06-30T06:10:20.957Z"
}